{
  "_format": "hh-sol-artifact-1",
  "contractName": "NewToken",
  "sourceName": "contracts/NewToken.sol",
  "abi": [
    {
      "inputs": [],
      "stateMutability": "nonpayable",
      "type": "constructor"
    },
    {
      "inputs": [
        {
          "internalType": "address",
          "name": "sender",
          "type": "address"
        },
        {
          "internalType": "uint256",
          "name": "tokenId",
          "type": "uint256"
        },
        {
          "internalType": "address",
          "name": "owner",
          "type": "address"
        }
      ],
      "name": "ERC721IncorrectOwner",
      "type": "error"
    },
    {
      "inputs": [
        {
          "internalType": "address",
          "name": "operator",
          "type": "address"
        },
        {
          "internalType": "uint256",
          "name": "tokenId",
          "type": "uint256"
        }
      ],
      "name": "ERC721InsufficientApproval",
      "type": "error"
    },
    {
      "inputs": [
        {
          "internalType": "address",
          "name": "approver",
          "type": "address"
        }
      ],
      "name": "ERC721InvalidApprover",
      "type": "error"
    },
    {
      "inputs": [
        {
          "internalType": "address",
          "name": "operator",
          "type": "address"
        }
      ],
      "name": "ERC721InvalidOperator",
      "type": "error"
    },
    {
      "inputs": [
        {
          "internalType": "address",
          "name": "owner",
          "type": "address"
        }
      ],
      "name": "ERC721InvalidOwner",
      "type": "error"
    },
    {
      "inputs": [
        {
          "internalType": "address",
          "name": "receiver",
          "type": "address"
        }
      ],
      "name": "ERC721InvalidReceiver",
      "type": "error"
    },
    {
      "inputs": [
        {
          "internalType": "address",
          "name": "sender",
          "type": "address"
        }
      ],
      "name": "ERC721InvalidSender",
      "type": "error"
    },
    {
      "inputs": [
        {
          "internalType": "uint256",
          "name": "tokenId",
          "type": "uint256"
        }
      ],
      "name": "ERC721NonexistentToken",
      "type": "error"
    },
    {
      "anonymous": false,
      "inputs": [
        {
          "indexed": true,
          "internalType": "address",
          "name": "owner",
          "type": "address"
        },
        {
          "indexed": true,
          "internalType": "address",
          "name": "approved",
          "type": "address"
        },
        {
          "indexed": true,
          "internalType": "uint256",
          "name": "tokenId",
          "type": "uint256"
        }
      ],
      "name": "Approval",
      "type": "event"
    },
    {
      "anonymous": false,
      "inputs": [
        {
          "indexed": true,
          "internalType": "address",
          "name": "owner",
          "type": "address"
        },
        {
          "indexed": true,
          "internalType": "address",
          "name": "operator",
          "type": "address"
        },
        {
          "indexed": false,
          "internalType": "bool",
          "name": "approved",
          "type": "bool"
        }
      ],
      "name": "ApprovalForAll",
      "type": "event"
    },
    {
      "anonymous": false,
      "inputs": [
        {
          "indexed": false,
          "internalType": "uint256",
          "name": "_fromTokenId",
          "type": "uint256"
        },
        {
          "indexed": false,
          "internalType": "uint256",
          "name": "_toTokenId",
          "type": "uint256"
        }
      ],
      "name": "BatchMetadataUpdate",
      "type": "event"
    },
    {
      "anonymous": false,
      "inputs": [
        {
          "indexed": false,
          "internalType": "uint256",
          "name": "_tokenId",
          "type": "uint256"
        }
      ],
      "name": "MetadataUpdate",
      "type": "event"
    },
    {
      "anonymous": false,
      "inputs": [
        {
          "indexed": true,
          "internalType": "address",
          "name": "from",
          "type": "address"
        },
        {
          "indexed": true,
          "internalType": "address",
          "name": "to",
          "type": "address"
        },
        {
          "indexed": true,
          "internalType": "uint256",
          "name": "tokenId",
          "type": "uint256"
        }
      ],
      "name": "Transfer",
      "type": "event"
    },
    {
      "inputs": [
        {
          "internalType": "address",
          "name": "to",
          "type": "address"
        },
        {
          "internalType": "uint256",
          "name": "tokenId",
          "type": "uint256"
        }
      ],
      "name": "approve",
      "outputs": [],
      "stateMutability": "nonpayable",
      "type": "function"
    },
    {
      "inputs": [
        {
          "internalType": "address",
          "name": "owner",
          "type": "address"
        }
      ],
      "name": "balanceOf",
      "outputs": [
        {
          "internalType": "uint256",
          "name": "",
          "type": "uint256"
        }
      ],
      "stateMutability": "view",
      "type": "function"
    },
    {
      "inputs": [
        {
          "internalType": "uint256",
          "name": "tokenId",
          "type": "uint256"
        }
      ],
      "name": "getApproved",
      "outputs": [
        {
          "internalType": "address",
          "name": "",
          "type": "address"
        }
      ],
      "stateMutability": "view",
      "type": "function"
    },
    {
      "inputs": [
        {
          "internalType": "address",
          "name": "owner",
          "type": "address"
        },
        {
          "internalType": "address",
          "name": "operator",
          "type": "address"
        }
      ],
      "name": "isApprovedForAll",
      "outputs": [
        {
          "internalType": "bool",
          "name": "",
          "type": "bool"
        }
      ],
      "stateMutability": "view",
      "type": "function"
    },
    {
      "inputs": [
        {
          "internalType": "address",
          "name": "to",
          "type": "address"
        },
        {
          "internalType": "uint256",
          "name": "tokenId",
          "type": "uint256"
        },
        {
          "internalType": "string",
          "name": "uri",
          "type": "string"
        }
      ],
      "name": "minting_Token",
      "outputs": [],
      "stateMutability": "nonpayable",
      "type": "function"
    },
    {
      "inputs": [],
      "name": "name",
      "outputs": [
        {
          "internalType": "string",
          "name": "",
          "type": "string"
        }
      ],
      "stateMutability": "view",
      "type": "function"
    },
    {
      "inputs": [],
      "name": "owner",
      "outputs": [
        {
          "internalType": "address",
          "name": "",
          "type": "address"
        }
      ],
      "stateMutability": "view",
      "type": "function"
    },
    {
      "inputs": [
        {
          "internalType": "uint256",
          "name": "tokenId",
          "type": "uint256"
        }
      ],
      "name": "ownerOf",
      "outputs": [
        {
          "internalType": "address",
          "name": "",
          "type": "address"
        }
      ],
      "stateMutability": "view",
      "type": "function"
    },
    {
      "inputs": [
        {
          "internalType": "address",
          "name": "from",
          "type": "address"
        },
        {
          "internalType": "address",
          "name": "to",
          "type": "address"
        },
        {
          "internalType": "uint256",
          "name": "tokenId",
          "type": "uint256"
        }
      ],
      "name": "safeTransferFrom",
      "outputs": [],
      "stateMutability": "nonpayable",
      "type": "function"
    },
    {
      "inputs": [
        {
          "internalType": "address",
          "name": "from",
          "type": "address"
        },
        {
          "internalType": "address",
          "name": "to",
          "type": "address"
        },
        {
          "internalType": "uint256",
          "name": "tokenId",
          "type": "uint256"
        },
        {
          "internalType": "bytes",
          "name": "data",
          "type": "bytes"
        }
      ],
      "name": "safeTransferFrom",
      "outputs": [],
      "stateMutability": "nonpayable",
      "type": "function"
    },
    {
      "inputs": [
        {
          "internalType": "address",
          "name": "operator",
          "type": "address"
        },
        {
          "internalType": "bool",
          "name": "approved",
          "type": "bool"
        }
      ],
      "name": "setApprovalForAll",
      "outputs": [],
      "stateMutability": "nonpayable",
      "type": "function"
    },
    {
      "inputs": [
        {
          "internalType": "bytes4",
          "name": "interfaceId",
          "type": "bytes4"
        }
      ],
      "name": "supportsInterface",
      "outputs": [
        {
          "internalType": "bool",
          "name": "",
          "type": "bool"
        }
      ],
      "stateMutability": "view",
      "type": "function"
    },
    {
      "inputs": [],
      "name": "symbol",
      "outputs": [
        {
          "internalType": "string",
          "name": "",
          "type": "string"
        }
      ],
      "stateMutability": "view",
      "type": "function"
    },
    {
      "inputs": [
        {
          "internalType": "uint256",
          "name": "tokenId",
          "type": "uint256"
        }
      ],
      "name": "tokenURI",
      "outputs": [
        {
          "internalType": "string",
          "name": "",
          "type": "string"
        }
      ],
      "stateMutability": "view",
      "type": "function"
    },
    {
      "inputs": [
        {
          "internalType": "address",
          "name": "from",
          "type": "address"
        },
        {
          "internalType": "address",
          "name": "to",
          "type": "address"
        },
        {
          "internalType": "uint256",
          "name": "tokenId",
          "type": "uint256"
        }
      ],
      "name": "transferFrom",
      "outputs": [],
      "stateMutability": "nonpayable",
      "type": "function"
    },
    {
      "inputs": [
        {
          "internalType": "address",
          "name": "to",
          "type": "address"
        },
        {
          "internalType": "uint256",
          "name": "tokenId",
          "type": "uint256"
        }
      ],
      "name": "transfer_Token",
      "outputs": [
        {
          "internalType": "address",
          "name": "",
          "type": "address"
        },
        {
          "internalType": "uint256",
          "name": "",
          "type": "uint256"
        }
      ],
      "stateMutability": "nonpayable",
      "type": "function"
    }
  ],
  "bytecode": "0x60806040523480156200001157600080fd5b506040518060400160405280600881526020017f4e6577546f6b656e0000000000000000000000000000000000000000000000008152506040518060400160405280600481526020017f4e544b4e0000000000000000000000000000000000000000000000000000000081525081600090816200008f919062000365565b508060019081620000a1919062000365565b50505033600760006101000a81548173ffffffffffffffffffffffffffffffffffffffff021916908373ffffffffffffffffffffffffffffffffffffffff1602179055506200044c565b600081519050919050565b7f4e487b7100000000000000000000000000000000000000000000000000000000600052604160045260246000fd5b7f4e487b7100000000000000000000000000000000000000000000000000000000600052602260045260246000fd5b600060028204905060018216806200016d57607f821691505b60208210810362000183576200018262000125565b5b50919050565b60008190508160005260206000209050919050565b60006020601f8301049050919050565b600082821b905092915050565b600060088302620001ed7fffffffffffffffffffffffffffffffffffffffffffffffffffffffffffffffff82620001ae565b620001f98683620001ae565b95508019841693508086168417925050509392505050565b6000819050919050565b6000819050919050565b600062000246620002406200023a8462000211565b6200021b565b62000211565b9050919050565b6000819050919050565b620002628362000225565b6200027a62000271826200024d565b848454620001bb565b825550505050565b600090565b6200029162000282565b6200029e81848462000257565b505050565b5b81811015620002c657620002ba60008262000287565b600181019050620002a4565b5050565b601f8211156200031557620002df8162000189565b620002ea846200019e565b81016020851015620002fa578190505b6200031262000309856200019e565b830182620002a3565b50505b505050565b600082821c905092915050565b60006200033a600019846008026200031a565b1980831691505092915050565b600062000355838362000327565b9150826002028217905092915050565b6200037082620000eb565b67ffffffffffffffff8111156200038c576200038b620000f6565b5b62000398825462000154565b620003a5828285620002ca565b600060209050601f831160018114620003dd5760008415620003c8578287015190505b620003d4858262000347565b86555062000444565b601f198416620003ed8662000189565b60005b828110156200041757848901518255600182019150602085019450602081019050620003f0565b8683101562000437578489015162000433601f89168262000327565b8355505b6001600288020188555050505b505050505050565b6126ee806200045c6000396000f3fe608060405234801561001057600080fd5b50600436106101005760003560e01c80637ac2b5f411610097578063b437488911610066578063b4374889146102c0578063b88d4fde146102dc578063c87b56dd146102f8578063e985e9c51461032857610100565b80637ac2b5f4146102375780638da5cb5b1461026857806395d89b4114610286578063a22cb465146102a457610100565b806323b872dd116100d357806323b872dd1461019f57806342842e0e146101bb5780636352211e146101d757806370a082311461020757610100565b806301ffc9a71461010557806306fdde0314610135578063081812fc14610153578063095ea7b314610183575b600080fd5b61011f600480360381019061011a9190611ab0565b610358565b60405161012c9190611af8565b60405180910390f35b61013d61036a565b60405161014a9190611ba3565b60405180910390f35b61016d60048036038101906101689190611bfb565b6103fc565b60405161017a9190611c69565b60405180910390f35b61019d60048036038101906101989190611cb0565b610418565b005b6101b960048036038101906101b49190611cf0565b61042e565b005b6101d560048036038101906101d09190611cf0565b610530565b005b6101f160048036038101906101ec9190611bfb565b610550565b6040516101fe9190611c69565b60405180910390f35b610221600480360381019061021c9190611d43565b610562565b60405161022e9190611d7f565b60405180910390f35b610251600480360381019061024c9190611cb0565b61061c565b60405161025f929190611d9a565b60405180910390f35b6102706107a5565b60405161027d9190611c69565b60405180910390f35b61028e6107cb565b60405161029b9190611ba3565b60405180910390f35b6102be60048036038101906102b99190611def565b61085d565b005b6102da60048036038101906102d59190611f64565b610873565b005b6102f660048036038101906102f19190612074565b61091c565b005b610312600480360381019061030d9190611bfb565b610939565b60405161031f9190611ba3565b60405180910390f35b610342600480360381019061033d91906120f7565b61094b565b60405161034f9190611af8565b60405180910390f35b6000610363826109df565b9050919050565b60606000805461037990612166565b80601f01602080910402602001604051908101604052809291908181526020018280546103a590612166565b80156103f25780601f106103c7576101008083540402835291602001916103f2565b820191906000526020600020905b8154815290600101906020018083116103d557829003601f168201915b5050505050905090565b600061040782610a40565b5061041182610ac8565b9050919050565b61042a8282610425610b05565b610b0d565b5050565b600073ffffffffffffffffffffffffffffffffffffffff168273ffffffffffffffffffffffffffffffffffffffff16036104a05760006040517f64a0ae920000000000000000000000000000000000000000000000000000000081526004016104979190611c69565b60405180910390fd5b60006104b483836104af610b05565b610b1f565b90508373ffffffffffffffffffffffffffffffffffffffff168173ffffffffffffffffffffffffffffffffffffffff161461052a578382826040517f64283d7b00000000000000000000000000000000000000000000000000000000815260040161052193929190612197565b60405180910390fd5b50505050565b61054b8383836040518060200160405280600081525061091c565b505050565b600061055b82610a40565b9050919050565b60008073ffffffffffffffffffffffffffffffffffffffff168273ffffffffffffffffffffffffffffffffffffffff16036105d55760006040517f89c62b640000000000000000000000000000000000000000000000000000000081526004016105cc9190611c69565b60405180910390fd5b600360008373ffffffffffffffffffffffffffffffffffffffff1673ffffffffffffffffffffffffffffffffffffffff168152602001908152602001600020549050919050565b600080600760009054906101000a900473ffffffffffffffffffffffffffffffffffffffff1673ffffffffffffffffffffffffffffffffffffffff163373ffffffffffffffffffffffffffffffffffffffff16146106af576040517f08c379a00000000000000000000000000000000000000000000000000000000081526004016106a69061221a565b60405180910390fd5b3373ffffffffffffffffffffffffffffffffffffffff168473ffffffffffffffffffffffffffffffffffffffff16141580156107185750600073ffffffffffffffffffffffffffffffffffffffff168473ffffffffffffffffffffffffffffffffffffffff1614155b610757576040517f08c379a000000000000000000000000000000000000000000000000000000000815260040161074e90612286565b60405180910390fd5b83600760006101000a81548173ffffffffffffffffffffffffffffffffffffffff021916908373ffffffffffffffffffffffffffffffffffffffff1602179055508383915091509250929050565b600760009054906101000a900473ffffffffffffffffffffffffffffffffffffffff1681565b6060600180546107da90612166565b80601f016020809104026020016040519081016040528092919081815260200182805461080690612166565b80156108535780601f1061082857610100808354040283529160200191610853565b820191906000526020600020905b81548152906001019060200180831161083657829003601f168201915b5050505050905090565b61086f610868610b05565b8383610d39565b5050565b600760009054906101000a900473ffffffffffffffffffffffffffffffffffffffff1673ffffffffffffffffffffffffffffffffffffffff163373ffffffffffffffffffffffffffffffffffffffff1614610903576040517f08c379a00000000000000000000000000000000000000000000000000000000081526004016108fa9061221a565b60405180910390fd5b61090d8383610ea8565b6109178282610fa1565b505050565b61092784848461042e565b61093384848484610ffd565b50505050565b6060610944826111b4565b9050919050565b6000600560008473ffffffffffffffffffffffffffffffffffffffff1673ffffffffffffffffffffffffffffffffffffffff16815260200190815260200160002060008373ffffffffffffffffffffffffffffffffffffffff1673ffffffffffffffffffffffffffffffffffffffff16815260200190815260200160002060009054906101000a900460ff16905092915050565b6000634906490660e01b7bffffffffffffffffffffffffffffffffffffffffffffffffffffffff1916827bffffffffffffffffffffffffffffffffffffffffffffffffffffffff19161480610a395750610a38826112c7565b5b9050919050565b600080610a4c836113a9565b9050600073ffffffffffffffffffffffffffffffffffffffff168173ffffffffffffffffffffffffffffffffffffffff1603610abf57826040517f7e273289000000000000000000000000000000000000000000000000000000008152600401610ab69190611d7f565b60405180910390fd5b80915050919050565b60006004600083815260200190815260200160002060009054906101000a900473ffffffffffffffffffffffffffffffffffffffff169050919050565b600033905090565b610b1a83838360016113e6565b505050565b600080610b2b846113a9565b9050600073ffffffffffffffffffffffffffffffffffffffff168373ffffffffffffffffffffffffffffffffffffffff1614610b6d57610b6c8184866115ab565b5b600073ffffffffffffffffffffffffffffffffffffffff168173ffffffffffffffffffffffffffffffffffffffff1614610bfe57610baf6000856000806113e6565b6001600360008373ffffffffffffffffffffffffffffffffffffffff1673ffffffffffffffffffffffffffffffffffffffff168152602001908152602001600020600082825403925050819055505b600073ffffffffffffffffffffffffffffffffffffffff168573ffffffffffffffffffffffffffffffffffffffff1614610c81576001600360008773ffffffffffffffffffffffffffffffffffffffff1673ffffffffffffffffffffffffffffffffffffffff168152602001908152602001600020600082825401925050819055505b846002600086815260200190815260200160002060006101000a81548173ffffffffffffffffffffffffffffffffffffffff021916908373ffffffffffffffffffffffffffffffffffffffff160217905550838573ffffffffffffffffffffffffffffffffffffffff168273ffffffffffffffffffffffffffffffffffffffff167fddf252ad1be2c89b69c2b068fc378daa952ba7f163c4a11628f55a4df523b3ef60405160405180910390a4809150509392505050565b600073ffffffffffffffffffffffffffffffffffffffff168273ffffffffffffffffffffffffffffffffffffffff1603610daa57816040517f5b08ba18000000000000000000000000000000000000000000000000000000008152600401610da19190611c69565b60405180910390fd5b80600560008573ffffffffffffffffffffffffffffffffffffffff1673ffffffffffffffffffffffffffffffffffffffff16815260200190815260200160002060008473ffffffffffffffffffffffffffffffffffffffff1673ffffffffffffffffffffffffffffffffffffffff16815260200190815260200160002060006101000a81548160ff0219169083151502179055508173ffffffffffffffffffffffffffffffffffffffff168373ffffffffffffffffffffffffffffffffffffffff167f17307eab39ab6107e8899845ad3d59bd9653f200f220920489ca2b5937696c3183604051610e9b9190611af8565b60405180910390a3505050565b600073ffffffffffffffffffffffffffffffffffffffff168273ffffffffffffffffffffffffffffffffffffffff1603610f1a5760006040517f64a0ae92000000000000000000000000000000000000000000000000000000008152600401610f119190611c69565b60405180910390fd5b6000610f2883836000610b1f565b9050600073ffffffffffffffffffffffffffffffffffffffff168173ffffffffffffffffffffffffffffffffffffffff1614610f9c5760006040517f73c6ac6e000000000000000000000000000000000000000000000000000000008152600401610f939190611c69565b60405180910390fd5b505050565b80600660008481526020019081526020016000209081610fc19190612452565b507ff8e1a15aba9398e019f0b49df1a4fde98ee17ae345cb5f6b5e2c27f5033e8ce782604051610ff19190611d7f565b60405180910390a15050565b60008373ffffffffffffffffffffffffffffffffffffffff163b11156111ae578273ffffffffffffffffffffffffffffffffffffffff1663150b7a02611041610b05565b8685856040518563ffffffff1660e01b81526004016110639493929190612579565b6020604051808303816000875af192505050801561109f57506040513d601f19601f8201168201806040525081019061109c91906125da565b60015b611123573d80600081146110cf576040519150601f19603f3d011682016040523d82523d6000602084013e6110d4565b606091505b50600081510361111b57836040517f64a0ae920000000000000000000000000000000000000000000000000000000081526004016111129190611c69565b60405180910390fd5b805181602001fd5b63150b7a0260e01b7bffffffffffffffffffffffffffffffffffffffffffffffffffffffff1916817bffffffffffffffffffffffffffffffffffffffffffffffffffffffff1916146111ac57836040517f64a0ae920000000000000000000000000000000000000000000000000000000081526004016111a39190611c69565b60405180910390fd5b505b50505050565b60606111bf82610a40565b5060006006600084815260200190815260200160002080546111e090612166565b80601f016020809104026020016040519081016040528092919081815260200182805461120c90612166565b80156112595780601f1061122e57610100808354040283529160200191611259565b820191906000526020600020905b81548152906001019060200180831161123c57829003601f168201915b50505050509050600061126a61166f565b9050600081510361127f5781925050506112c2565b6000825111156112b457808260405160200161129c929190612643565b604051602081830303815290604052925050506112c2565b6112bd8461168f565b925050505b919050565b60007f80ac58cd000000000000000000000000000000000000000000000000000000007bffffffffffffffffffffffffffffffffffffffffffffffffffffffff1916827bffffffffffffffffffffffffffffffffffffffffffffffffffffffff1916148061139257507f5b5e139f000000000000000000000000000000000000000000000000000000007bffffffffffffffffffffffffffffffffffffffffffffffffffffffff1916827bffffffffffffffffffffffffffffffffffffffffffffffffffffffff1916145b806113a257506113a1826116f8565b5b9050919050565b60006002600083815260200190815260200160002060009054906101000a900473ffffffffffffffffffffffffffffffffffffffff169050919050565b808061141f5750600073ffffffffffffffffffffffffffffffffffffffff168273ffffffffffffffffffffffffffffffffffffffff1614155b1561155357600061142f84610a40565b9050600073ffffffffffffffffffffffffffffffffffffffff168373ffffffffffffffffffffffffffffffffffffffff161415801561149a57508273ffffffffffffffffffffffffffffffffffffffff168173ffffffffffffffffffffffffffffffffffffffff1614155b80156114ad57506114ab818461094b565b155b156114ef57826040517fa9fbf51f0000000000000000000000000000000000000000000000000000000081526004016114e69190611c69565b60405180910390fd5b811561155157838573ffffffffffffffffffffffffffffffffffffffff168273ffffffffffffffffffffffffffffffffffffffff167f8c5be1e5ebec7d5bd14f71427d1e84f3dd0314c0f7b2291e5b200ac8c7c3b92560405160405180910390a45b505b836004600085815260200190815260200160002060006101000a81548173ffffffffffffffffffffffffffffffffffffffff021916908373ffffffffffffffffffffffffffffffffffffffff16021790555050505050565b6115b6838383611762565b61166a57600073ffffffffffffffffffffffffffffffffffffffff168373ffffffffffffffffffffffffffffffffffffffff160361162b57806040517f7e2732890000000000000000000000000000000000000000000000000000000081526004016116229190611d7f565b60405180910390fd5b81816040517f177e802f000000000000000000000000000000000000000000000000000000008152600401611661929190611d9a565b60405180910390fd5b505050565b606060405180606001604052806022815260200161269760229139905090565b606061169a82610a40565b5060006116a561166f565b905060008151116116c557604051806020016040528060008152506116f0565b806116cf84611823565b6040516020016116e0929190612643565b6040516020818303038152906040525b915050919050565b60007f01ffc9a7000000000000000000000000000000000000000000000000000000007bffffffffffffffffffffffffffffffffffffffffffffffffffffffff1916827bffffffffffffffffffffffffffffffffffffffffffffffffffffffff1916149050919050565b60008073ffffffffffffffffffffffffffffffffffffffff168373ffffffffffffffffffffffffffffffffffffffff161415801561181a57508273ffffffffffffffffffffffffffffffffffffffff168473ffffffffffffffffffffffffffffffffffffffff1614806117db57506117da848461094b565b5b8061181957508273ffffffffffffffffffffffffffffffffffffffff1661180183610ac8565b73ffffffffffffffffffffffffffffffffffffffff16145b5b90509392505050565b606060006001611832846118f1565b01905060008167ffffffffffffffff81111561185157611850611e39565b5b6040519080825280601f01601f1916602001820160405280156118835781602001600182028036833780820191505090505b509050600082602001820190505b6001156118e6578080600190039150507f3031323334353637383961626364656600000000000000000000000000000000600a86061a8153600a85816118da576118d9612667565b5b04945060008503611891575b819350505050919050565b600080600090507a184f03e93ff9f4daa797ed6e38ed64bf6a1f010000000000000000831061194f577a184f03e93ff9f4daa797ed6e38ed64bf6a1f010000000000000000838161194557611944612667565b5b0492506040810190505b6d04ee2d6d415b85acef8100000000831061198c576d04ee2d6d415b85acef8100000000838161198257611981612667565b5b0492506020810190505b662386f26fc1000083106119bb57662386f26fc1000083816119b1576119b0612667565b5b0492506010810190505b6305f5e10083106119e4576305f5e10083816119da576119d9612667565b5b0492506008810190505b6127108310611a095761271083816119ff576119fe612667565b5b0492506004810190505b60648310611a2c5760648381611a2257611a21612667565b5b0492506002810190505b600a8310611a3b576001810190505b80915050919050565b6000604051905090565b600080fd5b600080fd5b60007fffffffff0000000000000000000000000000000000000000000000000000000082169050919050565b611a8d81611a58565b8114611a9857600080fd5b50565b600081359050611aaa81611a84565b92915050565b600060208284031215611ac657611ac5611a4e565b5b6000611ad484828501611a9b565b91505092915050565b60008115159050919050565b611af281611add565b82525050565b6000602082019050611b0d6000830184611ae9565b92915050565b600081519050919050565b600082825260208201905092915050565b60005b83811015611b4d578082015181840152602081019050611b32565b60008484015250505050565b6000601f19601f8301169050919050565b6000611b7582611b13565b611b7f8185611b1e565b9350611b8f818560208601611b2f565b611b9881611b59565b840191505092915050565b60006020820190508181036000830152611bbd8184611b6a565b905092915050565b6000819050919050565b611bd881611bc5565b8114611be357600080fd5b50565b600081359050611bf581611bcf565b92915050565b600060208284031215611c1157611c10611a4e565b5b6000611c1f84828501611be6565b91505092915050565b600073ffffffffffffffffffffffffffffffffffffffff82169050919050565b6000611c5382611c28565b9050919050565b611c6381611c48565b82525050565b6000602082019050611c7e6000830184611c5a565b92915050565b611c8d81611c48565b8114611c9857600080fd5b50565b600081359050611caa81611c84565b92915050565b60008060408385031215611cc757611cc6611a4e565b5b6000611cd585828601611c9b565b9250506020611ce685828601611be6565b9150509250929050565b600080600060608486031215611d0957611d08611a4e565b5b6000611d1786828701611c9b565b9350506020611d2886828701611c9b565b9250506040611d3986828701611be6565b9150509250925092565b600060208284031215611d5957611d58611a4e565b5b6000611d6784828501611c9b565b91505092915050565b611d7981611bc5565b82525050565b6000602082019050611d946000830184611d70565b92915050565b6000604082019050611daf6000830185611c5a565b611dbc6020830184611d70565b9392505050565b611dcc81611add565b8114611dd757600080fd5b50565b600081359050611de981611dc3565b92915050565b60008060408385031215611e0657611e05611a4e565b5b6000611e1485828601611c9b565b9250506020611e2585828601611dda565b9150509250929050565b600080fd5b600080fd5b7f4e487b7100000000000000000000000000000000000000000000000000000000600052604160045260246000fd5b611e7182611b59565b810181811067ffffffffffffffff82111715611e9057611e8f611e39565b5b80604052505050565b6000611ea3611a44565b9050611eaf8282611e68565b919050565b600067ffffffffffffffff821115611ecf57611ece611e39565b5b611ed882611b59565b9050602081019050919050565b82818337600083830152505050565b6000611f07611f0284611eb4565b611e99565b905082815260208101848484011115611f2357611f22611e34565b5b611f2e848285611ee5565b509392505050565b600082601f830112611f4b57611f4a611e2f565b5b8135611f5b848260208601611ef4565b91505092915050565b600080600060608486031215611f7d57611f7c611a4e565b5b6000611f8b86828701611c9b565b9350506020611f9c86828701611be6565b925050604084013567ffffffffffffffff811115611fbd57611fbc611a53565b5b611fc986828701611f36565b9150509250925092565b600067ffffffffffffffff821115611fee57611fed611e39565b5b611ff782611b59565b9050602081019050919050565b600061201761201284611fd3565b611e99565b90508281526020810184848401111561203357612032611e34565b5b61203e848285611ee5565b509392505050565b600082601f83011261205b5761205a611e2f565b5b813561206b848260208601612004565b91505092915050565b6000806000806080858703121561208e5761208d611a4e565b5b600061209c87828801611c9b565b94505060206120ad87828801611c9b565b93505060406120be87828801611be6565b925050606085013567ffffffffffffffff8111156120df576120de611a53565b5b6120eb87828801612046565b91505092959194509250565b6000806040838503121561210e5761210d611a4e565b5b600061211c85828601611c9b565b925050602061212d85828601611c9b565b9150509250929050565b7f4e487b7100000000000000000000000000000000000000000000000000000000600052602260045260246000fd5b6000600282049050600182168061217e57607f821691505b60208210810361219157612190612137565b5b50919050565b60006060820190506121ac6000830186611c5a565b6121b96020830185611d70565b6121c66040830184611c5a565b949350505050565b7f796f7520617265206e6f74206f776e6572000000000000000000000000000000600082015250565b6000612204601183611b1e565b915061220f826121ce565b602082019050919050565b60006020820190508181036000830152612233816121f7565b9050919050565b7f746f2063616e6e6f74206265206f72206f776e65722000000000000000000000600082015250565b6000612270601683611b1e565b915061227b8261223a565b602082019050919050565b6000602082019050818103600083015261229f81612263565b9050919050565b60008190508160005260206000209050919050565b60006020601f8301049050919050565b600082821b905092915050565b6000600883026123087fffffffffffffffffffffffffffffffffffffffffffffffffffffffffffffffff826122cb565b61231286836122cb565b95508019841693508086168417925050509392505050565b6000819050919050565b600061234f61234a61234584611bc5565b61232a565b611bc5565b9050919050565b6000819050919050565b61236983612334565b61237d61237582612356565b8484546122d8565b825550505050565b600090565b612392612385565b61239d818484612360565b505050565b5b818110156123c1576123b660008261238a565b6001810190506123a3565b5050565b601f821115612406576123d7816122a6565b6123e0846122bb565b810160208510156123ef578190505b6124036123fb856122bb565b8301826123a2565b50505b505050565b600082821c905092915050565b60006124296000198460080261240b565b1980831691505092915050565b60006124428383612418565b9150826002028217905092915050565b61245b82611b13565b67ffffffffffffffff81111561247457612473611e39565b5b61247e8254612166565b6124898282856123c5565b600060209050601f8311600181146124bc57600084156124aa578287015190505b6124b48582612436565b86555061251c565b601f1984166124ca866122a6565b60005b828110156124f2578489015182556001820191506020850194506020810190506124cd565b8683101561250f578489015161250b601f891682612418565b8355505b6001600288020188555050505b505050505050565b600081519050919050565b600082825260208201905092915050565b600061254b82612524565b612555818561252f565b9350612565818560208601611b2f565b61256e81611b59565b840191505092915050565b600060808201905061258e6000830187611c5a565b61259b6020830186611c5a565b6125a86040830185611d70565b81810360608301526125ba8184612540565b905095945050505050565b6000815190506125d481611a84565b92915050565b6000602082840312156125f0576125ef611a4e565b5b60006125fe848285016125c5565b91505092915050565b600081905092915050565b600061261d82611b13565b6126278185612607565b9350612637818560208601611b2f565b80840191505092915050565b600061264f8285612612565b915061265b8284612612565b91508190509392505050565b7f4e487b7100000000000000000000000000000000000000000000000000000000600052601260045260246000fdfe68747470733a2f2f676174657761792e70696e6174612e636c6f75642f697066732fa2646970667358221220183bfec7c8521e56480f115eb4b7f3cf95e4fab55e2d717c17d4eda8cd7cc37464736f6c63430008140033",
  "linkReferences": {},
  "deployedLinkReferences": {}
}